:02000000F92ADB
:06000600000000000800EC
:0E000C00213083120313FD00FD0B0A280800AB
:10001A000F3083120313FC004730FD00FD0B132839
:0A002A00FC0B132800000000080082
:1000340083120313F801F9011030FC00710DF80D5F
:10004400F90D7408F8027508031C750FF9020318FA
:1000540032287408F80775080318750FF907031098
:0A006400F00DF10DFC0B2028080040
:10006E00831203179C1B3E28031388134028031387
:10007E00881703171C1B462803130813482803135D
:10008E00081703179C1A4E280313881250280313BF
:10009E00881603171C1A5628031308125828031320
:1000AE00081683166B185E288312081560288312B3
:1000BE00081188150320881103179C19692803134A
:1000CE0088136B280313881703171C197128031341
:1000DE00081373280313081703179C1879280313A2
:1000EE0088127B280313881603171C188128031304
:1000FE00081283280313081683166B188928831297
:10010E0008158B2883120811881503208811831671
:0C011E006B1C93280D209428062008007C
:10012A000E3083120313FD00FD0B9928000008000E
:10013A00831603136B108312031717089C003720CA
:06014A0083166B1408008F
:10015000831203179A0105301A020318B6281A08E9
:1001600019078400203080009A0AAB281A08190762
:10017000840080019A031A0819079B000A30F400D2
:10018000F5011708F0001808F1001A207808F000AF
:100190007908F1003030F00703171B08840070085D
:1001A00080000A30F400F5011708F0001808F1008B
:1001B0001A20700803179700710898000030710624
:1001C000031DE42800307006031DE728E9289A0380
:0401D000BB28080040
:0E01D4008316031353088A00520882000800A5
:1001E20083120317930194011008950011089600D9
:1001F20080301106F00080307002031D02290030A9
:1002020010020318102901309300003094001008E6
:10021200003C95001108031C013E96019602150848
:1002220097001608980012089900A8200630831635
:100232000313EE000030EF006F08003C031D23297A
:100242006E08003C031846296E0883120317120732
:10025200F2000130831603136E02F0000030031C1B
:10026200013E6F02F1007008831203171207840027
:100272000008F000720884007008800001308316C4
:100282000313EE02031CEF031D2983120317120846
:100292008400203080001308140403197029831687
:1002A2000313EE01EF016E08831203171207840095
:1002B2000008203A031D632983160313EE0A03196B
:1002C200EF0A5429831603130130EE02031CEF03D5
:1002D2006E0883120317120784002D308000080075
:1002E200C330831203139F05C0309F0083166E082C
:1002F200F000F00D7010F00D7010700883129F0462
:100302004C09F000700883169F059F1783121F1473
:1003120095209F149F1C8F2900008B291F101E08F7
:10032200F100F00183161E08F0040030F104080009
:10033200AB298030831203179000BE29C030900091
:10034200BE2994309000BE29D4309000BE2980305E
:100352009000BE29831203171008013A03199A2943
:100362001008023A03199F291008033A0319A22917
:100372001008043A0319A529A8291103F00010084E
:10038200F0077008900070089C00372083166B10ED
:10039200EE016E0883120317120784000008031986
:1003A200DE29831603136E088312031712078400D3
:1003B200000897009D20EE0ACA29831603136B14C6
:0203C200080031
:1003C400013083120317900004309100263092000C
:1003D4009921EE0171217008D0007108D1007008D4
:1003E400D4007108D50070088312031790007108B7
:1003F4009100D8309200F120023090000530910035
:100404003230920099210230831203179000073092
:100414009100D830920099210130EE0071217008CA
:10042400D6007108D7007008C5007108C6007008AE
:1004340083120317900071089100C0309200F120DC
:100444000330900001309100203092009921033054
:1004540083120317900003309100C0309200992159
:100464000230EE0071217008C7007108C8007008DE
:10047400CE007108CF007008831203179000710832
:100484009100C9309200F1200430900001309100B5
:100494002330920099210430831203179000033013
:1004A4009100C930920099210630FB001330FC0002
:1004B400AD30FD00FD0B5C2AFC0B5C2AFB0B5C2AB7
:1004C400000000000130831203179C0037200C3019
:0804D40003179C00372008000B
:1004DC00831203130614061C752A0614762A0610BA
:0204EC00080006
:1004EE008312031386170630FC003030FD00FD0B1F
:1004FE007E2AFC0B7E2A000086130B30FB00263072
:10050E00FC005D30FD00FD0B8A2AFC0B8A2AFB0BDA
:10051E008A2A0000000086170430FC00E430FD003B
:0E052E00FD0B972AFC0B972A0000861308008D
:10053C0083160313881108110812881208138813E4
:10054C0083128811081188130813881208120D20C1
:10055C000D200D20881608168815032088110D20F3
:10056C008815032088110D208815032088110D2073
:10057C0008128815032088110D2088150320881176
:10058C00881288178815032088110D2088130816E7
:10059C0088150320881108128815032088110D2056
:1005AC0088150320881108168815032088110D2042
:1005BC000812881503208811881708178816081642
:0E05CC008815032088110D2083166B1408007B
:1005DA00EA208A110A128000840AD20A0319D30A6D
:0805EA00F003031DED2A0800D7
:1005F2006C24013083160317880002308800033010
:1006020088008901861306108312031386130610CD
:100612000F3083169F009E220130831203179C0025
:1006220037200C3003179C003720851DB52B851E03
:10063200B52B6E22013003179000043091005B301D
:100642009200992102308312031790000530910025
:100652006930920099210330FB000830FC007730AA
:10066200FD00FD0B322BFC0B322BFB0B322B0C3023
:10067200831203179C003720013003179C00372098
:10068200E2210430FB000C30FC003330FD00FD0B96
:10069200482BFC0B482BFB0B482B000000000C30B6
:1006A20003179C003720013003179C0037200130CC
:1006B2000317900001309100B0309200992102306E
:1006C20083120317900001309100A030920099210B
:1006D200772203308316EE0071217008EC00710856
:1006E200ED000630E9000030EA00063083120317FD
:1006F200900000309100DD309200F1200330900034
:100702000130910035309200992103308312031792
:10071200900007309100DD30920099210630FB00F5
:100722001330FC00AD30FD00FD0B952BFC0B952B1F
:10073200FB0B952B000000000C30831203179C006A
:100742003720013003179C0037200630FB0013309E
:10075200FC00AD30FD00FD0BAC2BFC0BAC2BFB0BFE
:10076200AC2B00000000F42B851DD52B02300317A3
:100772009000033091003E30920099210330FB003B
:100782000830FC007730FD00FD0BC52BFC0BC52BA0
:10079200FB0BC52B0C30831203179C003720013052
:1007A20003179C003720F42B851EF42B023003170D
:1007B2009000033091004D30920099210330FB00EC
:1007C2000830FC007730FD00FD0BE52BFC0BE52B20
:1007D200FB0BE52B0C30831203179C0037200130F2
:0A07E20003179C003720162BF52B9F
:1008D80020308400503083120313F000FB3083165D
:1008E800D2000330D300ED22A030840020308312E0
:1008F800F0004B308316D2000430D300ED220800FC
:0607F60079343A340034AE
:0607FC007A343A340034A7
:100802004B346F346F347234643469346E3461340F
:080812006E3474343A340034F2
:06081A0078343A3400348A
:1008200053346934643464346534743469343A3428
:02083000003492
:1008320054346934543452344534533469344D3465
:0C08420020344F344C344434553400341E
:02084E00303444
:10085000533441345234533469344E34743469342B
:0C08600020344F344C3444345534003400
:10086C00443465347034723465346D34203454340B
:0C087C0065347334703469347434003413
:0E0888004534643469346C34643469340034AB
:1008960054346934543452344534533469344D3401
:1008A60020346F346C34753479346F3472340034D8
:1008B600533441345234533449344E345434493425
:1008C60020346F346C34753479346F3472340034B8
:04400E00F22F000786
:00000001FF
